:100000000C942A000C9447000C9447000C94470071
:100010000C9447000C9447000C9447000C94FB0090
:100020000C9447000C9447000C9447000C94470034
:100030000C9447000C9447000C9447000C94470024
:100040000C9447000C9447000C9447000C94470014
:100050000C94470011241FBECFE5D8E0DEBFCDBF12
:1000600010E0A0E6B0E0E2E0FCE002C005900D92F6
:10007000A83CB107D9F721E0A8ECB0E001C01D927F
:10008000A237B207E1F70E94BB010C94FF050C9464
:100090000000C79A00C0C7980895CF93DF93D82F68
:1000A000662311F0C59A01C0C598C69887B38F60C2
:1000B00087BBC8B3C07F8D2F82958F708C2B88BB78
:1000C0000E944900DF70DC2BD8BB0E944900CF6042
:1000D000C8BBDF91CF910895882311F0C59A01C064
:1000E000C598C69A87B3807F87BBC79A00C096B36E
:1000F000C79800C0C79A00C026B32F70892F829579
:10010000807FC798822B089580E00E946C0088232E
:10011000DCF383E090E00197F1F780E00E946C004F
:100120000895CF93C82F0E94840060E08C2F0E9416
:100130004D00CF91089581E00E9491000895CF93E2
:10014000C82F0E948400CA3049F4803410F080E047
:1001500001C080E480580E94910004C061E08C2FAF
:100160000E944D00CF910895CF93DF93EC0121962B
:10017000FC018081882329F00E949F0089918111D0
:10018000FBCFDF91CF9108950E949B0080EF90E01C
:100190000E94B40008953091D300EDEC3E9FE12D14
:1001A0001124E695E695E695EE0F2E2F220F220FED
:1001B000E20F3E1B21E0230F2093D300E32FF0E05A
:1001C000EE0FFF1FEC52FF4F918380839093D1007D
:1001D0008093D0002091CE003091CF0028173907AE
:1001E00020F49093CF008093CE00089584B195B110
:1001F0000E94CB0008951F920F920FB60F92112408
:100200002F933F934F935F936F937F938F939F931E
:10021000AF93BF93EF93FF934091700150917101A1
:100220004F5F5F4F4330510548F0109271011092BB
:1002300070018091C80081111EC01BC050937101D4
:10024000409370018091C800811115C09A01ADECF6
:10025000BCEC0E94E20296958795969587959C0145
:10026000220F331F220F331F820F931F4817590786
:1002700011F40E94F600E8EEF0E020E030E086B3F2
:1002800090E0022E02C0959587950A94E2F780FFD0
:1002900005C08081882311F0815080832F5F3F4FFC
:1002A00031962830310559F7FF91EF91BF91AF9109
:1002B0009F918F917F916F915F914F913F912F917E
:1002C0000F900FBE0F901F901895BC0188E08EBD57
:1002D00081E090E00E94AC029B01220F331F40E0BE
:1002E00050E060E070E880E790E00E94C00221509A
:1002F00031093BBD2ABD1FBC80E189BF089580E064
:1003000090E00E94B2059093CD008093CC0080E1F4
:1003100090E00E94B2058093CB0010927101109280
:1003200070011092C8008FE088BB17BA84E690E095
:100330000E9465017894089526B330E0082E02C02B
:10034000359527950A94E2F7A9014170552720FDBC
:100350000EC0FC01E851FF4F208121110AC0FC01B1
:10036000E851FF4F23E0208341E050E002C040E02D
:1003700050E0CA0108950E947F01209170013091E0
:1003800071012C3281E0380708F051C000E610E01E
:100390006894FF24F7F8C0EFD0E084B195B1AC01C8
:1003A00055276091D0007091D1004617570741F052
:1003B0005093D1004093D000861B8B3030F434C072
:1003C0005093D1004093D0002FC0ADECBCEC0E9404
:1003D000E2029695879596958795969587959F9332
:1003E0008F931F930F931F92FF92DF93CF930E94DF
:1003F000F1028FEF9FE724E0815090402040E1F729
:1004000000C0000020917001309171018DB79EB73E
:1004100008960FB6F8949EBF0FBE8DBF2C3291E0A8
:10042000390708F4BACF03C081E08093D200C1E05D
:1004300080E090E00E949C01892B51F08091CA00DD
:10044000882319F01092CA0064C0C093CA0005C086
:100450008091CA00882309F45CC082E090E00E9489
:100460009C01892B31F08091C9008093C8001092C3
:10047000CA0081E090E00E949C01892B29F08091C4
:10048000C90081508093C90083E090E00E949C01E4
:10049000892B59F08091C9008F5F843018F48093C4
:1004A000C90003C01092C9000AC08091C900813000
:1004B00081F028F08230B9F08330F9F027C08AE06B
:1004C000ECE7F0E0A0EFB0E001900D928A95E1F743
:1004D0001DC08DE0E6E8F0E0A0EFB0E001900D92E5
:1004E0008A95E1F713C089E0E3E9F0E0A0EFB0E01E
:1004F00001900D928A95E1F709C081E1ECE9F0E005
:10050000A0EFB0E001900D928A95E1F70E94C4003F
:100510008FCF8091C800813049F018F0823081F08F
:1005200018C082E090E00E949C0113C08CE0EDEACC
:10053000F0E0A0EFB0E001900D928A95E1F709C0DC
:100540008EE0E9EBF0E0A0EFB0E001900D928A952B
:10055000E1F70E94C4006CCFAA1BBB1B51E107C08E
:10056000AA1FBB1FA617B70710F0A61BB70B881F43
:10057000991F5A95A9F780959095BC01CD010895D2
:10058000A1E21A2EAA1BBB1BFD010DC0AA1FBB1F97
:10059000EE1FFF1FA217B307E407F50720F0A21B09
:1005A000B30BE40BF50B661F771F881F991F1A9476
:1005B00069F760957095809590959B01AC01BD01A0
:1005C000CF010895A29FB001B39FC001A39F700DFA
:1005D000811D1124911DB29F700D811D1124911D4B
:1005E0000895AEE0B0E0E7EFF2E00C94D6050D8997
:1005F0001E898F89988D26E02C831A83098397FFA3
:1006000002C080E090E801979E838D83AE01455E35
:100610005F4F698D7A8DCE0101960E9421034D8135
:100620005E8157FD0AC02F813885421753070CF4AD
:100630009A01F801E20FF31F10822E96E4E00C9469
:10064000F205ABE0B0E0E7E2F3E00C94C8056C0122
:100650007B018A01FC0117821682838181FFCCC154
:10066000CE0101963C01F6019381F70193FD85913E
:1006700093FF81917F01882309F4BAC1853239F44F
:1006800093FD859193FF81917F01853229F4B60115
:1006900090E00E941805E7CF912C212C312CFFE12E
:1006A000F315D8F08B3279F038F4803279F0833258
:1006B000A1F4232D20611DC08D3261F0803369F4D7
:1006C000232D216016C0832D8260382EE32DE46037
:1006D0003E2E2AC0F32DF8601DC037FC2DC020ED42
:1006E000280F2A3040F08E32B9F436FC81C1232D18
:1006F0002064322E19C036FE06C08AE0989E200D76
:100700001124922E11C0EAE02E9E200D1124222EDB
:10071000F32DF0623F2E08C08C3621F4832D8068C3
:10072000382E02C0883641F4F70193FD859193FF7E
:1007300081917F018111B3CF982F9F7D9554933084
:1007400028F40C5F1F4F9FE399830DC0833631F06F
:10075000833771F0833509F059C021C0F8018081D9
:1007600089830E5F1F4F88248394912C530113C0FB
:100770002801F2E04F0E511CF801A080B18036FE36
:1007800003C0692D70E002C06FEF7FEFC5010E94CA
:100790000D054C018201F32DFF773F2E16C0280175
:1007A00022E0420E511CF801A080B18036FE03C049
:1007B000692D70E002C06FEF7FEFC5010E94020556
:1007C0004C01F32DF0683F2E820133FC1BC0822DBB
:1007D00090E088169906B0F4B60180E290E00E949D
:1007E00018052A94F4CFF50137FC859137FE8191E5
:1007F0005F01B60190E00E94180521102A9421E0C3
:10080000821A91088114910471F7E8C0843611F0BE
:10081000893641F5F80137FE07C060817181828118
:1008200093810C5F1F4F08C060817181072E000CFF
:10083000880B990B0E5F1F4FF32DFF763F2E97FF0E
:1008400009C090958095709561957F4F8F4F9F4F10
:10085000F0683F2E2AE030E0A3010E945405882E64
:10086000861845C0853731F4232D2F7EB22E2AE01D
:1008700030E025C0932D997FB92E8F36C1F018F442
:10088000883579F0B5C0803719F0883721F0B0C0CD
:10089000E92FE061BE2EB4FE0DC0FB2DF460BF2E2B
:1008A00009C034FE0AC0292F2660B22E06C028E0F7
:1008B00030E005C020E130E002C020E132E0F80184
:1008C000B7FE07C060817181828193810C5F1F4FE9
:1008D00006C06081718180E090E00E5F1F4FA30130
:1008E0000E945405882E8618FB2DFF773F2E36FE7A
:1008F0000DC0232D2E7FA22E891458F434FE0BC078
:1009000032FC09C0832D8E7EA82E05C0B82CA32CE6
:1009100003C0B82C01C0B92CA4FE0FC0FE01E80D25
:10092000F11D8081803321F49A2D997EA92E09C072
:10093000A2FE06C0B394B39404C08A2D867809F051
:10094000B394A3FC11C0A0FE06C0B21488F4280C16
:10095000922C9B180EC0B21460F4B60180E290E0B5
:100960000E941805B394F7CFB21418F42B1802C0E4
:10097000982C212CA4FE10C0B60180E390E00E94C8
:100980001805A2FE17C0A1FC03C088E790E002C0D2
:1009900088E590E0B6010CC08A2D867859F0A1FE5A
:1009A00002C08BE201C080E2A7FC8DE2B60190E0BC
:1009B0000E941805891438F4B60180E390E00E9483
:1009C00018059A94F7CF8A94F301E80DF11D808100
:1009D000B60190E00E9418058110F5CF222009F49D
:1009E00042CEB60180E290E00E9418052A94F6CF2C
:1009F000F6018681978102C08FEF9FEF2B96E2E18F
:100A00000C94E405FC010590615070400110D8F78A
:100A1000809590958E0F9F1F0895FC016150704046
:100A200001900110D8F7809590958E0F9F1F089523
:100A30000F931F93CF93DF93FB01238121FD03C00D
:100A40008FEF9FEF2CC022FF16C046815781248173
:100A500035814217530744F4A081B1819D012F5F76
:100A60003F4F318320838C93268137812F5F3F4F07
:100A70003783268314C08B01EC01FB010084F185D0
:100A8000E02D0995892BE1F6D80116968D919C9160
:100A90001797019617969C938E931697CE01DF9128
:100AA000CF911F910F910895FA01AA27283051F193
:100AB000203181F1E8946F936E7F6E5F7F4F8F4F8F
:100AC0009F4FAF4FB1E03ED0B4E03CD0670F781FEE
:100AD000891F9A1FA11D680F791F8A1F911DA11DD3
:100AE0006A0F711D811D911DA11D20D009F468940C
:100AF0003F912AE0269F11243019305D3193DEF6B4
:100B0000CF010895462F4770405D4193B3E00FD069
:100B1000C9F7F6CF462F4F70405D4A3318F0495D54
:100B200031FD4052419302D0A9F7EACFB4E0A69537
:100B30009795879577956795BA95C9F70097610559
:100B4000710508959B01AC010A2E069457954795AF
:100B500037952795BA95C9F7620F731F841F951FA4
:100B6000A01D0895A8E1B0E042E050E00C94BA0561
:100B7000DC01CB01FC01E199FECF06C0FFBBEEBB5F
:100B8000E09A31960DB20D9241505040B8F7089559
:100B90002F923F924F925F926F927F928F929F928D
:100BA000AF92BF92CF92DF92EF92FF920F931F937B
:100BB000CF93DF93CDB7DEB7CA1BDB0B0FB6F8942C
:100BC000DEBF0FBECDBF09942A88398848885F846C
:100BD0006E847D848C849B84AA84B984C884DF80DD
:100BE000EE80FD800C811B81AA81B981CE0FD11DC1
:100BF0000FB6F894DEBF0FBECDBFED010895F89497
:020C0000FFCF24
:100C020043616C6962726174696E672E2E2E0A45A9
:100C12006C61707365643A20256473003F416C63B4
:100C22006F74657374003F4368616E67650A75731C
:100C32006572003F526573756C7473003F44656C56
:100C42006574650A646174616261736500544F443E
:100C52004F3A0A757365727300544F444F3A0A72E1
:080C62006573756C74730000EA
:00000001FF
