:100000000C946B000C9488000C9488000C9488006D
:100010000C9488000C9488000C9488000C94880040
:100020000C9488000C9488000C9488000C94880030
:100030000C9488000C9488000C9488000C94880020
:100040000C9488000C9488000C9488000C94880010
:100050000C94880007634236B79BD8A71A396856B4
:1000600018AEBAAB558C1D3CB7CC5763BD6DEDFDDA
:10007000753EF6177231BF000000803F0800000097
:10008000BE922449123EABAAAA2ABECDCCCC4C3E8D
:1000900000000080BEABAAAAAA3E00000000BF007C
:1000A0000000803F0000000000084178D3BB438778
:1000B000D1133D190E3CC3BD4282AD2B3E68EC828C
:1000C00076BED98FE1A93E4C80EFFFBE01C4FF7F11
:1000D0003F000000000011241FBECFE5D8E0DEBFC6
:1000E000CDBF11E0A0E6B0E0E0E6FEE102C0059081
:1000F0000D92A833B107D9F721E0A8E3B1E001C020
:100100001D92AB3DB207E1F70E9416050C942E0F2D
:100110000C940000979A00C097980895CF93C82F29
:10012000662311F0959A01C095989698BC9ABD9A4D
:10013000BE9ABF9AC798C698C598C498CC230CF4A9
:10014000C79AC6FDC69AC5FDC59AC4FDC49A0E9449
:100150008A00C798C698C598C498C3FDC79AC2FDBF
:10016000C69AC1FDC59AC0FDC49A0E948A00C49A6D
:10017000C59AC69AC79ACF910895882311F0959A87
:1001800001C09598969ABC98BD98BE98BF98979ACA
:1001900000C0B49B02C080E101C080E0B5998062DC
:1001A000B6998064B7998068979800C0979A00C004
:1001B000B4998160B5998260B6998460B799886076
:1001C0009798089580E00E94BD008823DCF383E0C7
:1001D00090E00197F1F780E00E94BD000895CF9371
:1001E000C82F0E94E20060E08C2F0E948E00CF9109
:1001F0000895611104C080580E94EF000895805452
:100200000E94EF00089581E00E94EF000895CF93CF
:10021000C82F0E94E200CA3049F4803410F080E018
:1002200001C080E480580E94EF0004C061E08C2F80
:100230000E948E00CF910895CF93DF93EC01219619
:10024000FC018081882329F00E9407018991811196
:10025000FBCFDF91CF9108951F93CF93DF93182F9A
:100260008D9A8E9A8F9ABC9ABD9ABE9ABF9A80E355
:1002700093E70197F1F7C59AC49A0E948A0080EF2C
:1002800093E20197F1F70E948A00C5E7D0E0CE0122
:100290000197F1F70E948A00CE010197F1F7C49807
:1002A0000E948A002197F1F788E20E94EF0088E01F
:1002B0000E94EF000E94030186E00E94EF00812F60
:1002C0000E94EF00DF91CF911F9108950F931F932C
:1002D000CF93DF93CDB7DEB7C058D1090FB6F894EE
:1002E000DEBF0FBECDBF8BE591E09F938F938BE96F
:1002F00091E09F938F9389E690E09F938F931F9255
:1003000080E88F938E010F5F1F4F1F930F930E9402
:10031000FE0B0E940301C8010E941C010FB6F89455
:10032000DEBF0FBECDBFC058DF4F0FB6F894DEBFA3
:100330000FBECDBFDF91CF911F910F910895EF9226
:10034000FF920F931F93CF93DF9306E010E021C03D
:1003500060E0CE010E94DD0E2196C017D107C1F7E3
:1003600060E0C8010E94DD0EE8012196780181E17C
:10037000E80EF11C40E050E0BA01CE010E94EA0E06
:100380002496CE15DF05B1F70E5E1F4F0E34110512
:1003900019F0E8012697DCCF61E480E090E00E944C
:1003A000DD0E60E081E090E00E94DD0E61E088E417
:1003B00090E00E94DD0E81E080933F01DF91CF91BC
:1003C0001F910F91FF90EF9008958AE020E030E0B8
:1003D000369A349BFECF44B155B1240F351F81505E
:1003E000B9F7ADECBCEC0E94DB0B96958795969522
:1003F00087959695879508954F925F926F927F9219
:10040000AF92BF92CF92DF92EF92FF920F931F9322
:10041000CF93DF936B017C012FE832EC45E050E491
:100420000E94D5092B013C010E94ED085B01C70128
:10043000B6010E94ED088B011F9285E28F9320E0A8
:1004400030E040E251E4C301B2010E94D5090E94AC
:10045000ED08CAE0D0E0CB01BE010E94C70B9F931C
:100460008F93C501BE010E94C70B9F938F937F930B
:100470006F9320E030E040E251E4C701B6010E94F2
:10048000D5090E94ED08CB01BE010E94C70B9F93C6
:100490008F93C801BE010E94C70B9F938F937F93D8
:1004A0006F938FE690E09F938F931F9280E48F93DA
:1004B0008BE591E09F938F930E94FE0B8DB79EB7C3
:1004C00044960FB6F8949EBF0FBE8DBFDF91CF91BB
:1004D0001F910F91FF90EF90DF90CF90BF90AF9062
:1004E0007F906F905F904F900895CF92DF92EF9240
:1004F000FF92CF93DF930E94E501C0916100D091FC
:100500006200BC01990F880B990B0E94250920E01D
:1005100030E040E85AE30E94D50920E030E040EAAC
:1005200050E40E94D5099B01AC0160E070E48EE4C8
:1005300095E40E947B0820E030E045E254E40E940C
:1005400009086B017C01BE01DD0F880B990B0E942D
:1005500025099B01AC01C701B6010E947B082AEB6B
:100560003BE649EC5EE30E94D50922E133E840EC2A
:100570005FEB0E94420A20914C0130914D01409165
:100580004E0150914F010E940908DF91CF91FF90D9
:10059000EF90DF90CF900895E0E5F1E020E030E0CB
:1005A00086B390E0022E02C0959587950A94E2F7F3
:1005B00080FF05C08081882311F0815080832F5FE8
:1005C0003F4F31962430310559F7089526B330E076
:1005D000082E02C0359527950A94E2F720FD0DC03C
:1005E000FC01E05BFE4F2081211109C0FC01E05BB2
:1005F000FE4F21E0208381E0089580E0089580E0AF
:10060000089580E181BB81E28FBD8AE08EBD8EE0DE
:1006100090E099BD88BD8CE00E942C01089580E493
:1006200087B986E886B908954F925F926F927F925C
:100630008F929F92AF92BF92CF92DF92EF92FF92F2
:100640000F931F93CF93DF9380914301811193C048
:10065000C0E0CC24C3940F2EFBE5AF2EF1E0BF2EFB
:10066000F02D0F2EF5E2DF2EF02D0F2EF7E8EF2EF6
:10067000F0E0FF2EF02DD0E40BE911E0369A349B28
:10068000FECF84B195B12091410130914201821792
:10069000930739F09093420180934101821B8A3085
:1006A000E8F5CF5FC431D1F5C09243010E947502D5
:1006B00060934C0170934D0180934E0190934F01D4
:1006C00060914C0170914D0180914E0190914F01CC
:1006D000809061009090620020E030E042ED53E4B1
:1006E0000E947B0820E030E040E85FE30E940A08B7
:1006F0002B013C01B401990C880B990B0E94250930
:100700009B01AC01C301B2010E94D5090E94ED0812
:100710007093620060936100F50110821F92DF9276
:100720008C2F90E09C01220F331F220F331F820F6A
:10073000931F9F938F93FF92EF921F92DF931F93CC
:100740000F930E94FE0B0E946601FFEF2FE181E0F4
:10075000F15020408040E1F700C00000EDB7FEB747
:100760003A960FB6F894FEBF0FBEEDBF80914301DD
:10077000882309F483CFDF91CF911F910F91FF90D0
:10078000EF90DF90CF90BF90AF909F908F907F9031
:100790006F905F904F900895CF92DF92EF92FF920B
:1007A0001F93CF93DF936B017C018091400190E018
:1007B000880F991FEC01CC0FDD1FCC0FDD1FCC0F74
:1007C000DD1F8C0F9D1FEC016396CE010E94D70E9A
:1007D000A70196010E94760888232CF4B701A60190
:1007E000CE010E94EA0EC0914001D0E0CC0FDD1F87
:1007F0009E01220F331F220F331F220F331FC20F00
:10080000D31FCE0106960E94CF0E182FCE01079659
:10081000B701A60124E0129F800D911D11240E94B2
:10082000EA0E133018F461E0610F01C060E020911E
:10083000400130E0220F331FC901880F991F880F34
:10084000991F880F991F820F931F06960E94DD0E35
:10085000DF91CF911F91FF90EF90DF90CF9008959F
:100860006091400170E0660F771FCB01880F991FE0
:10087000880F991F880F991F680F791F46E050E075
:1008800085E491E00E94BF0E089510925A0181E024
:10089000809339018FE088BB17BA88E490E00E940A
:1008A000CF0E80933F018150843010F00E949F0151
:1008B0000E94300408958091400190E0880F991FB4
:1008C0009C01220F331F220F331F220F331F820F71
:1008D000931F079620913E0134E0239F800D911DC8
:1008E00011240E94D70E60933A0170933B018093CC
:1008F0003C0190933D010895CF92DF92EF92FF92D9
:100900000F931F93CF93DF930091400110E0000FEE
:10091000111FC801880F991F880F991F880F991FF1
:10092000080F191FE80127960D5E1F4FC12CD12C0F
:100930007601CE010E94D70E9B01AC01C701B60122
:100940000E940A086B017C012496C017D10789F721
:1009500020E030E040E450E40E947B08DF91CF913A
:100960001F910F91FF90EF90DF90CF90089585E455
:1009700091E09F938F938AE990E09F938F931F92CA
:1009800080E88F938BE991E09F938F930E94FE0BF9
:100990000E9466018091440160E08B5F0E94F90033
:1009A000809160000E9407018091440160E08B5FAC
:1009B0000E94F9008DB79EB708960FB6F8949EBFB7
:1009C0000FBE8DBF08950F931F93CF93DF93809138
:1009D0003F01843030F505E411E0C0E0D0E0F801DB
:1009E00061918F0180913F0190E0880F991F9C01D8
:1009F000220F331F220F331F220F331F820F931F2B
:100A00008C0F9D1F0E94DD0E2196C530D10539F750
:100A100060913F016F5F60933F0188E490E00E9426
:100A2000DD0EDF91CF911F910F9108950E94450433
:100A30000E9401030E940F030E941403CBE5D1E042
:100A40006894552452F805E411E00F2EF3E62F2E9A
:100A5000F0E03F2EF02D0F2EF9E58F2EF5E69F2EBC
:100A6000F02D0F2EF3E7AF2EB12CF02D0F2EFEE45C
:100A70006F2EFFE67F2EF02D0F2EFAE9EF2EF0E01D
:100A8000FF2EF02D0F2EF1EECF2EF0E0DF2EF02D09
:100A90000E94CC0280E090E00E94E602882341F0B0
:100AA00080913901811109C081E08093390105C02D
:100AB00080913901882309F499C080915A018330CB
:100AC00019F48CE00E94EF0082E090E00E94E602C0
:100AD000882339F180913801833091F480913F016E
:100AE0008530B0F6F801108218828FE00E94EF0086
:100AF00010924401F1E4F09360000E94B7040BC02F
:100B0000823029F410923E010E945B0404C08130BF
:100B100011F40E9430048091380180935A011092A0
:100B2000390181E090E00E94E602882351F0809133
:100B30003801811103C05092380103C08150809365
:100B4000380183E090E00E94E602882359F080910A
:100B500038018F5F853018F48093380103C01092FC
:100B600038010FC0809138018230F9F028F48823D1
:100B700041F0813081F036C0833009F1843049F191
:100B800031C08AE0E2EAF0E0ABE9B1E001900D9219
:100B90008A95E1F727C08DE0ECEAF0E0ABE9B1E03F
:100BA00001900D928A95E1F71DC089E0E9EBF0E034
:100BB000ABE9B1E001900D928A95E1F713C08FE0A7
:100BC000E2ECF0E0ABE9B1E001900D928A95E1F73B
:100BD00009C080E1E1EDF0E0ABE9B1E001900D92F8
:100BE0008A95E1F718820E94660152CF80915A01DE
:100BF000823009F4BAC030F4882359F0813009F406
:100C000050C0FDC1833009F442C1843009F4A9C148
:100C1000F6C10E9475026093540170935501809350
:100C20005601909357011F930F93FF92EF921F92DB
:100C300080E88F938BE991E09F938F930E94FE0B46
:100C40006091540170915501809156019091570126
:100C50000E94FC012FEF3FE583E0215030408040AF
:100C6000E1F700C0000082E090E00E94E602EDB7EC
:100C7000FEB738960FB6F894FEBF0FBEEDBF8823BF
:100C800069F06091540170915501809156019091E5
:100C900057010E94CC0382E080935A010E946601B2
:100CA000AEC182E090E00E94E602882329F0109213
:100CB0005A0181E08093390181E090E00E94E602D0
:100CC000882379F080914001811106C080913F0115
:100CD00081508093400103C08150809340010E9465
:100CE000300483E090E00E94E602882391F0809136
:100CF00040018F5F8093400190E020913F0130E000
:100D0000215031092817390714F4109240010E942C
:100D100030041F930F93FF92EF921F926894442424
:100D200047F84F928BE991E09F938F930E94FE0BBF
:100D300080913F011F928F938091400190E0019636
:100D40009F938F93DF92CF921F924F92DF93CF9317
:100D50000E94FE0B0E9466018DB79EB742960FB6A9
:100D6000F8949EBF0FBE8DBF4AC181E090E00E9403
:100D7000E602882361F080913E01811103C0509208
:100D80003E0103C0815080933E010E945B0483E0DA
:100D900090E00E94E602882361F080913E01843059
:100DA00018F010923E0103C08F5F80933E010E94B5
:100DB0005B0480913E01833030F590E001969F9373
:100DC0008F931F930F93EDEEF0E0FF93EF931F923D
:100DD00080E88F938BE991E09F938F930E94FE0BA5
:100DE00060913A0170913B0180913C0190913D01ED
:100DF0000E94FC018DB79EB70A960FB6F8949EBF6D
:100E00000FBE8DBF41C0833011F51F930F93EAEFE2
:100E1000F0E0FF93EF931F9280E88F938BE991E0CE
:100E20009F938F930E94FE0B60913A0170913B015A
:100E300080913C0190913D010E94FC018DB79EB7CD
:100E400008960FB6F8949EBF0FBE8DBF1DC08430AC
:100E5000D9F41F930F93E8E0F1E0FF93EF931F9213
:100E600080E88F938BE991E09F938F930E94FE0B14
:100E70000E947C040E94FC018DB79EB708960FB6B5
:100E8000F8949EBF0FBE8DBF0E946601B8C00E943D
:100E9000B70481E090E00E94E602882399F08091F7
:100EA0006000813421F480E28093600009C08032C8
:100EB00021F48AE58093600003C081508093600034
:100EC0000E94B70483E090E00E94E602882399F034
:100ED000809160008A3520F080E28093600009C034
:100EE000803221F491E49093600003C08F5F80937F
:100EF00060000E94B70482E090E00E94E60288232E
:100F000009F47DC080916000803259F40E94E304AE
:100F100010925A0181E0809339018CE00E94EF0029
:100F20001DC01F928F931F930F933F922F921F927A
:100F300086E08F931F930F930E94FE0B80E28093B5
:100F40006000809144018F5F80934401EDB7FEB74C
:100F50003A960FB6F894FEBF0FBEEDBF0E94B704DD
:100F60004EC08AE0E6E1F1E0ABE9B1E001900D921C
:100F70008A95E1F781E090E00E94E602811106C0C7
:100F800083E090E00E94E602882359F080914B01B3
:100F9000811104C081E080934B010BC010924B0182
:100FA00004C080914B01811104C0798268821A8249
:100FB00024C099828882BB82AA8282E090E00E944B
:100FC000E6028823D1F08FE0E0E2F1E0ABE9B1E0A6
:100FD00001900D928A95E1F788E0EFE2F1E0DE0101
:100FE00001900D928A95E1F70E9466010E949F018F
:100FF00010925A0181E0809339010E946601FFEF4F
:101000002FE131E0F15020403040E1F700C0000016
:101010003FCD5058BB27AA270E9421080C949B095A
:101020000E948D0938F00E94940920F039F49F3F06
:1010300019F426F40C948A090EF4E095E7FB0C945D
:101040008409E92F0E94AC0958F3BA1762077307A5
:101050008407950720F079F4A6F50C94CE090EF4D8
:10106000E0950B2EBA2FA02D0B01B90190010C01B8
:10107000CA01A0011124FF27591B99F0593F50F4D0
:10108000503E68F11A16F040A22F232F342F442728
:10109000585FF3CF469537952795A795F040539520
:1010A000C9F77EF41F16BA0B620B730B840BBAF0F0
:1010B0009150A1F0FF0FBB1F661F771F881FC2F75B
:1010C0000EC0BA0F621F731F841F48F4879577956F
:1010D0006795B795F7959E3F08F0B0CF9395880F29
:1010E00008F09927EE0F9795879508950E9460095B
:1010F00008F481E008950E948F080C949B090E94D7
:10110000940958F00E948D0940F029F45F3F29F0BE
:101110000C94840951110C94CF090C948A090E94F3
:10112000AC0968F39923B1F3552391F3951B550B43
:10113000BB27AA2762177307840738F09F5F5F4FAA
:10114000220F331F441FAA1FA9F335D00E2E3AF0E9
:10115000E0E832D091505040E695001CCAF72BD001
:10116000FE2F29D0660F771F881FBB1F2617370752
:101170004807AB07B0E809F0BB0B802DBF01FF2784
:1011800093585F4F3AF09E3F510578F00C948409D4
:101190000C94CF095F3FE4F3983ED4F3869577959E
:1011A0006795B795F7959F5FC9F7880F911D96953D
:1011B000879597F90895E1E0660F771F881FBB1F99
:1011C000621773078407BA0720F0621B730B840B46
:1011D000BA0BEE1F88F7E09508950E94F408689412
:1011E000B1110C94CF0908950E94B40988F09F575B
:1011F00098F0B92F9927B751B0F0E1F0660F771F3B
:10120000881F991F1AF0BA95C9F714C0B13091F030
:101210000E94CE09B1E008950C94CE09672F782F73
:101220008827B85F39F0B93FCCF3869577956795F5
:10123000B395D9F73EF490958095709561957F4F61
:101240008F4F9F4F0895E89409C097FB3EF4909507
:101250008095709561957F4F8F4F9F4F9923A9F08F
:10126000F92F96E9BB279395F6958795779567951E
:10127000B795F111F8CFFAF4BB0F11F460FF1BC062
:101280006F5F7F4F8F4F9F4F16C0882311F096E9F5
:1012900011C0772321F09EE8872F762F05C06623A3
:1012A00071F096E8862F70E060E02AF09A95660F5C
:1012B000771F881FDAF7880F9695879597F9089515
:1012C000990F0008550FAA0BE0E8FEEF1616170657
:1012D000E807F907C0F012161306E407F50798F0BF
:1012E000621B730B840B950B39F40A2661F0232BD8
:1012F000242B252B21F408950A2609F4A140A69554
:101300008FEF811D811D089597F99F6780E870E038
:1013100060E008959FEF80EC089500240A9416166B
:10132000170618060906089500240A9412161306D3
:10133000140605060895092E0394000C11F4882361
:1013400052F0BB0F40F4BF2B11F460FF04C06F5F7D
:101350007F4F8F4F9F4F089557FD9058440F551F53
:1013600059F05F3F71F04795880F97FB991F61F027
:101370009F3F79F087950895121613061406551F9E
:10138000F2CF4695F1DF08C0161617061806991F0A
:10139000F1CF86957105610508940895E894BB27FF
:1013A00066277727CB0197F908950E94E8090C94E6
:1013B0009B090E948D0938F00E94940920F0952322
:1013C00011F00C9484090C948A0911240C94CF090F
:1013D0000E94AC0970F3959FC1F3950F50E0551F23
:1013E000629FF001729FBB27F00DB11D639FAA277A
:1013F000F00DB11DAA1F649F6627B00DA11D661FC9
:10140000829F2227B00DA11D621F739FB00DA11DE9
:10141000621F839FA00D611D221F749F3327A00DA3
:10142000611D231F849F600D211D822F762F6A2F3F
:1014300011249F5750409AF0F1F088234AF0EE0FA4
:10144000FF1FBB1F661F771F881F91505040A9F7D1
:101450009E3F510580F00C9484090C94CF095F3FA6
:10146000E4F3983ED4F3869577956795B795F7950D
:10147000E7959F5FC1F7FE2B880F911D9695879585
:1014800097F90895FA01EE0FFF1F309621053105F7
:10149000A1F16115710561F48038BFE39B0749F143
:1014A00068949038810561F08038BFEF9B0741F068
:1014B00099234AF5FF3FE1053105210519F1E8942B
:1014C0000894E795D901AA2329F4AB2FBE2FF85F22
:1014D000D0F310C0FF5F70F4A695E0F7F73950F035
:1014E00019F0FF3A38F49F779F930DD00F9007FCC7
:1014F0009058089546F00C948A0960E070E080E806
:101500009FE308954FE79F775F934F933F932F9308
:101510000E943D0B2F913F914F915F910E94D50901
:101520000C949A0A29F416F00C9484090C94CE09B0
:101530000C948A090E94B409A8F39638A0F707F81A
:101540000F92E8942BE33AEA48EB5FE70E94EB093D
:101550000F920F920F924DB75EB70F920E94850BBC
:10156000E4E5F0E00E94CC0A4F915F91EF91FF918A
:10157000E595EE1FFF1F49F0FE57E0684427EE0F88
:10158000441FFA95E1F74195550B0E94FF0A0F9011
:1015900007FE0C94F30A0895DF93CF931F930F93E4
:1015A000FF92EF92DF927B018C01689406C0DA2EE5
:1015B000EF010E94E809FE01E894A591259135917B
:1015C00045915591A6F3EF010E942108FE01970174
:1015D000A801DA9469F7DF90EF90FF900F911F91C7
:1015E000CF91DF9108959B01AC0160E070E080E84D
:1015F0009FE30C947B080C9484090C94B90B0E9413
:10160000B409D8F39923C9F3940F511DA3F3915052
:10161000504094F059F0882332F0660F771F881FEE
:1016200091505040C1F79E3F51052CF7880F911DF6
:101630009695879597F908955F3FACF0983E9CF09A
:10164000BB27869577956795B79508F4B160939514
:10165000C1F7BB0F58F711F460FFE8CF6F5F7F4F02
:101660008F4F9F4FE3CF0C94CF0916F00C94B90B1A
:101670000C948A0968940C9484090E94B409A8F314
:101680009923C1F3AEF3DF93CF931F930F93FF9290
:10169000C92FDD2788232AF02197660F771F881F1F
:1016A000DAF720E030E040E85FEB9FE3883920F094
:1016B000803E38F021968F770E940A08ECE7F0E030
:1016C00004C00E940A08E9EAF0E00E94CC0A8B01FB
:1016D000BE01EC01FB2E6F5771097595771F880BC2
:1016E000990B0E94250928E132E741E35FE30E945C
:1016F000E809AF2D9801AE01FF900F911F91CF9196
:10170000DF910E9421080C949B09FA01DC01AA0FC9
:10171000BB1F9B01AC01BF5728F422273327442766
:10172000507820C0B75190F4AB2F002446953795E0
:101730002795011CA395D2F3002071F0220F331FCF
:10174000441FB395DAF30ED00C940908613071058B
:10175000A0E88A07B94630F49B01AC0166277727D9
:1017600088279078309621F02083318342835383F9
:1017700008959F3F31F0915020F4879577956795B4
:10178000B795880F911D9695879597F9089597FBC2
:10179000072E16F4009407D077FD09D00E94EA0BBB
:1017A00007FC05D03EF4909581959F4F0895709564
:1017B00061957F4F0895A29FB001B39FC001A39F81
:1017C000700D811D1124911DB29F700D811D11247A
:1017D000911D0895AA1BBB1B51E107C0AA1FBB1F87
:1017E000A617B70710F0A61BB70B881F991F5A95AD
:1017F000A9F780959095BC01CD010895AEE0B0E0C9
:10180000E4E0FCE00C94050F0D891E898F89988D0A
:1018100026E02C831A83098397FF02C080E090E8BA
:1018200001979E838D83AE01455E5F4F698D7A8DF2
:10183000CE0101960E942E0C4D815E8157FD0AC09B
:101840002F813885421753070CF49A01F801E20FF3
:10185000F31F10822E96E4E00C94210FABE0B0E071
:10186000E4E3FCE00C94F70E6C017B018A01FC01BF
:1018700017821682838181FFCCC1CE0101963C0183
:10188000F6019381F70193FD859193FF81917F018B
:10189000882309F4BAC1853239F493FD859193FF09
:1018A00081917F01853229F4B60190E00E94250ED6
:1018B000E7CF912C212C312CFFE1F315D8F08B329E
:1018C00079F038F4803279F08332A1F4232D20614D
:1018D0001DC08D3261F0803369F4232D216016C064
:1018E000832D8260382EE32DE4603E2E2AC0F32D36
:1018F000F8601DC037FC2DC020ED280F2A3040F0C5
:101900008E32B9F436FC81C1232D2064322E19C0E9
:1019100036FE06C08AE0989E200D1124922E11C03A
:10192000EAE02E9E200D1124222EF32DF0623F2E90
:1019300008C08C3621F4832D8068382E02C088368A
:1019400041F4F70193FD859193FF81917F0181110E
:10195000B3CF982F9F7D9554933028F40C5F1F4F81
:101960009FE399830DC0833631F0833771F083355F
:1019700009F059C021C0F801808189830E5F1F4F93
:1019800088248394912C530113C02801F2E04F0E58
:10199000511CF801A080B18036FE03C0692D70E0B3
:1019A00002C06FEF7FEFC5010E941A0E4C01820149
:1019B000F32DFF773F2E16C0280122E0420E511C66
:1019C000F801A080B18036FE03C0692D70E002C02E
:1019D0006FEF7FEFC5010E940F0E4C01F32DF068F1
:1019E0003F2E820133FC1BC0822D90E088169906A1
:1019F000B0F4B60180E290E00E94250E2A94F4CF64
:101A0000F50137FC859137FE81915F01B60190E0C9
:101A10000E94250E21102A9421E0821A9108811437
:101A2000910471F7E8C0843611F0893641F5F80168
:101A300037FE07C060817181828193810C5F1F4FE7
:101A400008C060817181072E000C880B990B0E5F16
:101A50001F4FF32DFF763F2E97FF09C0909580957D
:101A6000709561957F4F8F4F9F4FF0683F2E2AE012
:101A700030E0A3010E94610E882E861845C085378C
:101A800031F4232D2F7EB22E2AE030E025C0932D95
:101A9000997FB92E8F36C1F018F4883579F0B5C02A
:101AA000803719F0883721F0B0C0E92FE061BE2EF1
:101AB000B4FE0DC0FB2DF460BF2E09C034FE0AC079
:101AC000292F2660B22E06C028E030E005C020E1B4
:101AD00030E002C020E132E0F801B7FE07C06081CB
:101AE0007181828193810C5F1F4F06C0608171817B
:101AF00080E090E00E5F1F4FA3010E94610E882ED0
:101B00008618FB2DFF773F2E36FE0DC0232D2E7F2E
:101B1000A22E891458F434FE0BC032FC09C0832D68
:101B20008E7EA82E05C0B82CA32C03C0B82C01C0F3
:101B3000B92CA4FE0FC0FE01E80DF11D8081803399
:101B400021F49A2D997EA92E09C0A2FE06C0B39455
:101B5000B39404C08A2D867809F0B394A3FC11C015
:101B6000A0FE06C0B21488F4280C922C9B180EC05C
:101B7000B21460F4B60180E290E00E94250EB394A6
:101B8000F7CFB21418F42B1802C0982C212CA4FE05
:101B900010C0B60180E390E00E94250EA2FE17C09F
:101BA000A1FC03C088E790E002C088E590E0B601A0
:101BB0000CC08A2D867859F0A1FE02C08BE201C0CC
:101BC00080E2A7FC8DE2B60190E00E94250E891408
:101BD00038F4B60180E390E00E94250E9A94F7CF86
:101BE0008A94F301E80DF11D8081B60190E00E9416
:101BF000250E8110F5CF222009F442CEB60180E2F5
:101C000090E00E94250E2A94F6CFF60186819781F6
:101C100002C08FEF9FEF2B96E2E10C94130FFC01B3
:101C20000590615070400110D8F7809590958E0F07
:101C30009F1F0895FC016150704001900110D8F77A
:101C4000809590958E0F9F1F08950F931F93CF93AC
:101C5000DF93FB01238121FD03C08FEF9FEF2CC099
:101C600022FF16C0468157812481358142175307D0
:101C700044F4A081B1819D012F5F3F4F31832083C8
:101C80008C93268137812F5F3F4F3783268314C083
:101C90008B01EC01FB010084F185E02D0995892B76
:101CA000E1F6D80116968D919C911797019617969B
:101CB0009C938E931697CE01DF91CF911F910F9138
:101CC0000895FA01AA27283051F1203181F1E894D2
:101CD0006F936E7F6E5F7F4F8F4F9F4FAF4FB1E01F
:101CE0003ED0B4E03CD0670F781F891F9A1FA11D1A
:101CF000680F791F8A1F911DA11D6A0F711D811D1B
:101D0000911DA11D20D009F468943F912AE0269FDF
:101D100011243019305D3193DEF6CF010895462F3E
:101D20004770405D4193B3E00FD0C9F7F6CF462F1F
:101D30004F70405D4A3318F0495D31FD4052419388
:101D400002D0A9F7EACFB4E0A69597958795779545
:101D50006795BA95C9F700976105710508959B01CC
:101D6000AC010A2E06945795479537952795BA9555
:101D7000C9F7620F731F841F951FA01D0895DC0112
:101D8000CB01FC01E199FECF06C0FFBBEEBBE09AA0
:101D900031960DB20D9241505040B8F70895E19937
:101DA000FECF9FBB8EBBE09A99278DB30895A6E125
:101DB000B0E044E050E00C94C10E262FE199FECF34
:101DC0009FBB8EBB2DBB0FB6F894E29AE19A0FBE73
:101DD00001960895242F0E94DE0E252F0E94DE0E0C
:101DE0000C94F20E0E94DD0E272F0C94DE0E2F9223
:101DF0003F924F925F926F927F928F929F92AF929B
:101E0000BF92CF92DF92EF92FF920F931F93CF93E7
:101E1000DF93CDB7DEB7CA1BDB0B0FB6F894DEBF7E
:101E20000FBECDBF09942A88398848885F846E84A4
:101E30007D848C849B84AA84B984C884DF80EE80EE
:101E4000FD800C811B81AA81B981CE0FD11D0FB6F7
:101E5000F894DEBF0FBECDBFED010895F894FFCF1B
:101E600020B00425732563000025730A257300251F
:101E7000642E256425646D672F4C202025642E2553
:101E800064256425632E0043616C69627261746924
:101E90006E673A25686875256300557365723A2543
:101EA00073003F416C636F74657374003F537769CF
:101EB0007463680A75736572003F526573756C745C
:101EC00073003F416464206E65770A7573657273B1
:101ED000003F436C6561720A64617461626173659D
:101EE0000049443A2564206F6620256400557365D7
:101EF000723A2573202025642E00557365723A25A9
:101F00007320204D41583A00557365723A2573206D
:101F1000204156473A00436C6561722064623F007D
:101F2000436C656172696E672064622E2E2E0057C5
:081F30006169742E2E2E0000E1
:00000001FF
